:100000004D424E014D344850610104000100000092
:100010006000000000C000000000000000000000C0
:100020000000380100000000000000000004000093
:10003000010061010100260000040000009800009A
:100040000200070127002B00009C000000140000A4
:10005000030007012C002F0000B00000001000007A
:100060000038002035020000000000000000000001
:100070000000000000000000000000000000000080
:100080000000000000000000000000000000000070
:10009000000000000000000000000000550000000B
:1000A0005700000051010000790000008D000000A1
:1000B00000000000FEE708B5044B01221A70044B53
:1000C0000022DA77034B1B68984708BD0000002028
:1000D0000800005034000020034B01225A70A02376
:1000E0000022DB051A70704700000020034B01223C
:1000F0009A70A0230022DB059A7070470000002050
:100100008D23013B002B01D0C046FAE7044B10229F
:100110001B78DBB21807C00F134018437047C04666
:100120002B0000500F4BF7B518261E700E4BA02762
:100130001E70FFF7E5FFFF050B4B01AC00252C37C8
:1001400060701D703E70FFF7DBFF064B20703D7046
:100150001D7023786278181C504040001340034300
:10016000D8B2FEBD2A0000502D00005000230360CD
:1001700030B50B601312012B13D10423013B10D3B4
:10018000084DD4B25D5D641BF8D4074A9D00126827
:10019000AA58002A05D012190260044AD35C1C1B1D
:1001A0000C6030BDE0030000DC030000E40300004D
:1001B00070B58022D2051379DBB2002B19D12B4CFC
:1001C0006360A3602A4B1289261C251C1B6892B20F
:1001D00010361435E260301C291C002B06D09847DD
:1001E0002169002937D1E268301C291CFFF7BEFFC6
:1001F00031E0012B0CD11D4B186900282BD09968D8
:100200005C69A14227DA4C1C9C60137A435422E0BB
:10021000022B1BD1154C2369002B12D06068616939
:1002200088420EDA1B5C1BBAD360124B1B68002B92
:1002300003D0E268101880B29847636801336360A6
:1002400009E080230022DB05DA6004E0032B02D101
:10025000064B00229A60C0468023DB0501221A70FB
:10026000C04602221A7000221A7070BD00000020E1
:100270003C0000203800002080230222DB05FF32F2
:100280001A600421024AFF31118000221A7070475F
:1002900006000040F0B5A023DB059B68534A1F21F0
:1002A0008DB0DBB21160D12B0BD0D02B01D8013334
:1002B000DBB2A022D2059168FF20814319439160EF
:1002C000F1E74B4B4B4A191D043B934203D20022EA
:1002D0001A600B1CF6E7FFF7CFFF474A8023DB02CB
:1002E0001A80464A0027093A92B25A809F80C04637
:1002F000434ADE88434D10685268434C0A922A886C
:1003000009ABB6B21A8123625E810990FFF70AFF3A
:10031000A023DB05DA7C03AB1A7034214D225A701E
:1003200099705A7148214522D9709A7150219C22A6
:100330001971D8716362520005AB0597A3611A80E9
:1003400007AB01220797E3615A70304B0697DA89B1
:100350002F4B08975F882F4B211C1B8828310B706F
:10036000211C1B0A29310B702B4901235B420B70A6
:100370002A482B4903700B702A48211C2E312F3438
:1003800003700B7023702B889E4229D1264B9A4212
:1003900026D0BA4224D1254EF7899F4220D0F68933
:1003A000B446234E7788BC451AD1224FF88998422B
:1003B00016D0FF89EB889F4212D1174B17481A704D
:1003C000120A73880270164A9BB2164813701B0AF1
:1003D0000370EB889BB20B701B0A237000F048F887
:1003E000154B02221A6062B6FEE7C0462800005094
:1003F00004000020400000200004000000C00000B5
:10040000F0BF0000F8BF0000000000200004000062
:10041000FC9B0000FE0300002A0000202B000020AF
:100420002C0000202D000020FFFF0000009C000099
:10043000FCAF000000B0000000E100E01800002068
:100440002030407008080C08FFFFFFFFFFFFFFFF90
:10045000FFFFFFFFFFFFFFFFFFFFFFFFFFFF380171
:100460004D344850434F54320000000000006101F9
:10047000F0B5D9B002AF03F068FE05F00DFBF863EC
:1004800008F0E2FE08F010FF09F0F2FB00F07CFE3D
:10049000CA4ACB4B1A60CB4ACB4B1A60CB4ACC4BE7
:1004A0001A6005F0F9FA7864052800D146E316D8F9
:1004B000022800D1FFE207D8002827D0012800D168
:1004C000ECE27C6CFC63ECE77D6C032D00D127E350
:1004D000042DF6D105F066FB02F0C4FB29E37C6C29
:1004E000092C00D152E307D8072C00D13AE3082C9D
:1004F000E7D105F057FB3FE37D6C0A2D00D157E3B0
:100500000B2DDED105F04EFB00F0FDFB05F0DAFA15
:10051000041E1AD00128D4D1AE4B02221B68391C0C
:100520001D6A7031BD611D691A627D617D6C261C7A
:100530001D61281C3F232A1C8D803D670B7105F02F
:10054000B1FBBD637D6C3D64B8E00124012C02D099
:10055000022C0AD098E0002002F06EF803F02CFA8A
:10056000C0B205F0EDFB02F04DF89A4B6C461B68EB
:10057000BC635D681E681B696E43F3189B000A33F9
:10058000DB08DB00E01A8546862502AC6D003C6482
:100590007C19201C0021142208F0D8FF9E20400066
:1005A0003B1C9021BC333A1849005A607A189A6073
:1005B000391C283A1A61B031143A874D4A60143A0E
:1005C0008A602A688548DC60F03200241470026872
:1005D000386C5361824BB6001B68861910609161BC
:1005E00056602D331A7869465200131C0833DB0815
:1005F000DB00C91A8D4602AB181C211C7B6308F076
:10060000A5FF05F04FFC3A6C4178331C201C00F02C
:10061000A7FEF86BA04201D005F0C4FA2B689C60DD
:1006200005F088FB041C03F0C7F9A04204D0201C8D
:1006300003F0C7F902241DE07C6B3A1C00943B1CBC
:10064000311CBC32B033386C01F066FC624B654A39
:100650001B68041C9968914202D09A6801329A6022
:10066000002807D105F02EFA002803D105F014FA6E
:100670000028D5D0594D00232A6813605360536178
:100680009361BD6BFB63AD4605F01CFA002803D0F7
:10069000002001F0F5F814E705F0FEF9002800D17C
:1006A00054E7F5E7022E0DD005F00CFA012800D032
:1006B000EDE105F0F1F9002800D0E8E1012EF1D1DB
:1006C00001F0A0FF434D6C462B683C6158681C68E4
:1006D0001B694443E3189B000A33DB08DB006946CF
:1006E000C91A8D4602AA7A6302F0C6FD862000234D
:1006F00040003A1CFB6564323B185A60043A9A6029
:10070000043ADA60391C043A1A61E431043A4A6066
:10071000043A8A602A686D4690695269A40042438F
:1007200092000A32D208D200AD1AAD4602ADAAB08C
:1007300002A8BD62AAB0F825E85102AAFC20C25165
:10074000264A7D6B12682C191560546053619161C3
:10075000FC6205F0A7FB041C04F024F86178052076
:100760007A6BFB6A00F0FCFD04F064FB1A4BB86A7C
:100770001B680024596900F01BFCFD6BA54201D0E9
:1007800005F010FA0020391C7831A223021C8C805D
:10079000BC670B7105F086FA0F4B1B689C60002448
:1007A00005F0C8FAF86303F007F9FD6BA8421BD007
:1007B000281C03F006F9022659E1C046055D000039
:1007C0003C000020815D000038000020FD1000008A
:1007D000340000201C0300204000002044000020C2
:1007E0003C0D0020FFFFFF7F002C74D1D84B6D46DD
:1007F0001B687D6298695A69410001324A43131CA3
:100800000833DB08DB00E91A8D4602AD281C211CE9
:100810003D6308F09BFE386CCE4D082808D104F0EB
:1008200009FB2B68B86A596900F0C2FB3C6450E0D0
:10083000042003F0A7FA2B68386B5969BA6A05F0EF
:1008400089FF051E012D12D103F0ACFF052003F036
:1008500099FA391C80318C800C60A323201C221C47
:100860002C1C00250B7105F01DFA3D6431E0BA4DDA
:10087000B86A2B68396B35331A7806F043F82B6861
:10088000B86B35331B785B0098420ADD03F08AFFB2
:10089000052001217A6BFB6A00F062FD04F0CAFAC0
:1008A000BC63B96B2B680131B9633433187803F03A
:1008B00088F803F09DF82B6800263533187802F08D
:1008C00079FE002002F098FEF86B03F07AF803F04E
:1008D000B3F87D6AB6E0A04B1B68363318789D4BA1
:1008E0001B68186002F066FE052003F023FA786B9F
:1008F000F96A00F0E7FE061E06D086214900781846
:1009000000F0BEFF01249EE06C4692B002AD92B0B2
:10091000FC6002AC8AB0FD6302AD90B03C6302ACF7
:100920008AB07D62311C02AD402288B0F86B3C6217
:10093000FD6108F00BFE311C4022386B08F006FE0A
:10094000311C2022786A08F001FE311C4022386AEE
:1009500008F0FCFD02AC311C2022F86908F0F6FD1D
:10096000201C311C202208F0F1FD902040003D1891
:10097000F96B3A6B7B6AAC61784C6960AA60EB609A
:10098000386A2368F9698622520028616961281C47
:10099000B9181D63102200F0CFFE9E204000391CC4
:1009A0003C18BC3161600C39A1604439E160043904
:1009B00021613B1C6949D03363611E605E603A1C53
:1009C0000B684C32A2611C6186235B001680FA180A
:1009D0003B1CE433281C211CFE66BE6600F0E2FED0
:1009E0006068A16806F0BCF96068A1680230023155
:1009F00006F0B6F9381CF830396C07F0F1FD3864B0
:100A0000032804D0072800D083E1182505E0381C0E
:100A1000F83008F041F9051E09D005F061F86B1EA9
:100A200001229A401040D84000D172E188E103F0E1
:100A300075F903F03FF80124484B00221B681A6146
:100A40001A63FD68AD46434B454A1B68996891425D
:100A500002D09A6801329A60002E08D105F032F86F
:100A6000012804D105F018F8002800D198E603F019
:100A700055F903F097FE394B1A6800231360536051
:100A80001361536193613C69FB63A5460CE6304BEF
:100A9000BD691B687C691D621C6112E505F082F866
:100AA00004F0FAFF0128FBD008F0AAFB00F06CFB71
:100AB00004F0F6FD05E500F0B7FE284B1B68586909
:100AC00000F0DEFE04F02EFF002003F031FA03F008
:100AD00095F900F057F901F095FD05F063F805F080
:100AE0007BF803280DD004D801280AD0022808D0AA
:100AF0000FE005280BD007D306280AD102F02CFD01
:100B000007E002F0E7F804E004F0F4FB01E002F093
:100B100011FD04F0C1FF0228E1D000F097FED0E4FF
:100B200005F040F801F06EFD04F0B6FF0328FBD09D
:100B3000C7E404F0B1FF0428FBD0C2E405F032F8AA
:100B400003F038FB04F0A8FF0528FBD0B9E4C04649
:100B50001C030020400000203C0D00204400002029
:100B6000FFFFFF7F05F01EF8012001F065FD04F096
:100B700093FF0728FBD0A4E4002003F003F903F05F
:100B8000E5F904F089FF0828F6D09AE405F00AF8A0
:100B9000002002F0DAFB002003F0F4F803F0D6F9AD
:100BA00004F07AFF0928F6D0012002F0CEFB88E499
:100BB0006C4600207C6308F0ADFB08F075FB00205C
:100BC00003F0B6F96D4D2B685E6818681B694643E3
:100BD000F3180733DB08DB00E11A8D4602ACA619D7
:100BE000FC6202F02BFB02F041FB02F033FBF86ADF
:100BF000311CFE6303F090FB2B686D465A681B693D
:100C0000D3189B000A33DB08DB00ED1AAD4602ACBB
:100C10003C6404F0C7FF594D391C2B6898311868A3
:100C20001A7908704A708A705A1DD27F1B69FC6A53
:100C3000CA700B71002201234B710420131C009415
:100C400004F0F6FFF96BF86A04F074FA002003F080
:100C500099F82B684A495D680E68BD630022B86B3D
:100C6000824208DA90008446B069644600593D6CBF
:100C700001322851F3E73C6C8200A4181D690E680C
:100C8000A4460022AA4206DA306A9100405864461F
:100C900060500132F6E7BA6B391CA03118684A700F
:100CA0009A6808708A700533DB7F0132CB70344B51
:100CB00092001B680D715B6904259A184D710092B2
:100CC0000022131C022004F0B3FF391CA8310123B9
:100CD0000B702A4B3C6C1B6805201A794A708A708D
:100CE0005A1DD27F1B69CA7000220B714D71131CF3
:100CF000009404F09DFF04F0CFFE0A288BD07D6B9A
:100D0000AD46FFF7DEFB04F0C7FE0B28FBD0FFF774
:100D1000D8FB3C6C082C00D089E602F0FFFF0120D4
:100D200002F03DFC0024391C8831A223201C221C27
:100D30008C800C600B7104F0B5FF04F07BF87BE64F
:100D400002214820C155381C49224830D55504F0AD
:100D50002FFE02F0E3FF012002F021FC0024391CE9
:100D60009031A223201C221C08258C800C600B7162
:100D700004F098FF04F05EF83D645DE61C0300207B
:100D800040000020F8B5184D7146281C764603F047
:100D900027FB164C276802F0A3FE7862276802F052
:100DA000A3FEB862276802F0A3FE7861276802F00C
:100DB000A3FEF861276802F0F1FEB861276802F02F
:100DC00003FF0B4B0B491B68096838621878097CD4
:100DD0002268414302331161E832281C311C136040
:100DE00003F016FBF8BDC046250D000040000020B2
:100DF000880E00203C0D0020014B18607047C04653
:100E00003C0D0020014B18687047C0463C0D002087
:100E1000014B18607047C046880E0020014B1868CF
:100E20007047C046880E0020014B18687047C046C6
:100E300040000020014B58687047C0464000002029
:100E400082B0F0B589B0109C151C0F9306930294E4
:100E500007900E1C119C02F0F1F947793A4B049768
:100E60008279964206D11B680021DA69AB00D05A1C
:100E700003910BE01A68354B52691968731C896835
:100E800003964B43EB1801339B00D05A04997143EE
:100E900049194A00A4182388069E0193019F7318DC
:100EA000874203D8C61B029FBE521CE0029EB618A2
:100EB00005960027F65F013610D01F787EB2B44643
:100EC000013601DA013703E06646002E06DD013FF8
:100ED0001F7002235B42238001202FE0069F7918B8
:100EE0000F78002F01D120800CE07FB27C1C05D14F
:100EF000019E059F301A3880002002E0012F01D1A9
:100F0000FF2008701978039C049E079F48B2744321
:100F10007D19002805DC029EB25E013208D000294E
:100F200006D12A5700203E2A08DC0131197005E05D
:100F30002A57002A01DD01391970002009B0F0BCE0
:100F400008BC02B01847C046400000201C03002027
:100F500070B5154C7146201C754603F041FA134BD1
:100F600000221B68191C88310A601E1C01219C3656
:100F70004942181C3160B2600830083EF18232608C
:100F80007283C26790300160826008380183191C47
:100F9000AC31026004330A8020390A60201C291C0D
:100FA000DA6703F035FA70BDF10E00004000002052
:100FB000F0B5754685B00395294D01900F1C281C8E
:100FC000714603F00DFA274B00211B680198DA697E
:100FD000920008F0BBFA04F065FF02904478214DBE
:100FE000002C21D0042002F0CDFE28684269561E54
:100FF000009617D383690099019E5943C918890047
:1010000071180439013B0BD3866856439E1901368B
:10101000B600F5590E68AC46B44465460D60F0E77D
:10102000009AE4E7013CDAE72F687D69013D11D3BE
:10103000BC69019A261C6E433619B6009619043E07
:10104000013CF3D3029B3068597808F06FF9000433
:101050003060F4E70248039903F0DAF905B0F0BD17
:10106000510F00001C03002038B50B4C7146201CAA
:10107000754603F0B5F9094B201C1B68DA6A002A93
:1010800003DD596B5218D20F00E000227433291C83
:101090001A7003F0BDF938BD0910000040000020AF
:1010A000F0B52C4F72468BB07146381C019203F09C
:1010B00097F9294D2B681A1CCC321178583A00291F
:1010C00004D1191CB0310978002901D00021117018
:1010D0001478002C21D0996F002407915A6B03A932
:1010E0000892DB6A07AA099303234B708B707C2359
:1010F0005B42CB7001261023201C8C800E700B717C
:1011000004F0D0FD2B689A6FD96F8A4202DC9219E5
:101110009A6718E09C67341C15E05A6B05A9079282
:10112000DB6A0920089301230B7002234B708B703C
:101130007C235B42CB7007AA64238C800B7104F084
:10114000B1FD2B689C67381C019903F061F9201CE4
:101150000BB0F0BD411000004000002038B5094C34
:101160007146201C754603F03BF904F0ABFC0028E7
:1011700002D1022002F0DEFD291C201C03F048F9F8
:1011800038BDC046FD10000037B5114C7146201C1B
:10119000754603F025F905F02FFC02F067FE021EEC
:1011A00007D16946A923888000900B7104F07AFD6D
:1011B000FEE7084B1B6803CB02F0D4F805F034FCC3
:1011C000FFF7E0FD291C201C03F022F937BDC046C3
:1011D000291100001C030020F0B587B000AF754650
:1011E000786039615C487146FD6003F0F9F803F0FE
:1011F0003DF883000A33DB08DB006E46F61AB5467D
:10120000041C684603F03AF863000833DB08DB008F
:10121000F61A301C6D46B546BE6003F04BF84F4BD6
:101220001B68191C88310868632807DD012000222B
:1012300040420A604861CA61191DCA671A1C883297
:101240001068191C013008311060CA6F632A09DD6B
:1012500000220120CA67404290318A6008601A1D4E
:101260000121D1671A1C0832D16F0131D167191CD5
:1012700094310E68012E07DD0120002240420A60F1
:10128000C8824A8308390A601A1C943211680131F5
:101290001160191C90310868012809DD0022012025
:1012A0000A608A8340421A1C08838C320121116033
:1012B0001A1C90321168013111600022101C013C8F
:1012C00008D3A1006958BE6840186100715A5218CD
:1012D00092B2F4E7191CAA310024A4261D19B446C1
:1012E000AC447D6165462D68854201D2664630601A
:1012F0007E699C363568854200D930608E8896427A
:1013000000D28A800E88964200D90A80043C261CAE
:1013100002390836E1D11A1DD26F7D6892009A1801
:10132000111CA0319832096812683E698A1A2A8015
:101330001A1C8C321268084852009B181A1CAC32D6
:10134000A83312881B88F968D31A338003F060F839
:10135000BD4607B0F0BDC046791100004000002036
:10136000F0B5284E85B075460191041C7146301CBD
:101370001F1C0395009203F033F8234D00212B68C6
:101380000098DA68920008F0E1F82B68381C1A69B6
:101390000021920008F0DAF8019D002D0CD0201CED
:1013A00002F0F0FC194B00981B68391C5A69DB6984
:1013B00005F096F9013DF0E7002C0FD1134B1B68A7
:1013C0005D699E69029502F07AFB051C02F080FBC4
:1013D000311C031C2A1C029804F07CFD0098391C67
:1013E000019A04F0DFFE002C06D1084B201C1D687A
:1013F00002F07CFEEC3528600248039903F008F8FF
:1014000005B0F0BD011300001C03002040000020C7
:10141000F0B595B004AF754678613961A34871465F
:10142000FA61BB61FD6002F0DBFF04F03BFDA04B05
:101430006C461B68BC601C68786204346400221C23
:101440000832D2086846D200851A5A68AD4604327E
:101450005200131C0833DB08DB006846C01A04ADD9
:10146000854604AE301C00213D6208F06FF8221C56
:101470000021386A08F06AF88E4C7D6923685A6941
:10148000191C9B690095386A2C3104300190301D7D
:101490000290F86904F028FF2368874D191C683111
:1014A0003960796A78602A68097B58699268009186
:1014B000396A029601912C33396807F065FCBA68E5
:1014C000236838699546191CDA691B6A00902C312B
:1014D000B86905F069F87E680643F6B23E6204F02A
:1014E000F3FC0679012E0BD12B685B691B78002B6E
:1014F00006D104F0E7FA012802D0301C02F04FF8C0
:101500002568281C291C68312C3004F0B3FE6B4A76
:1015100023681268E8660C24115F9D6D8D420EDC15
:101520000E20115EDC6D8C4209DB1025515F186EB8
:10153000884204DC1221525E5B6E934221DA002362
:101540003B8738220123D35504F0D8FA002818D15C
:1015500004F038F9002814D0564B1A68FF2391681C
:10156000FE2901DC9368DBB2381C022139243830B3
:10157000E35504F01DFA524802F086FF01F010FF17
:10158000E2E74B4E2921336828255A681868CA5566
:101590009A682A23DA558023E8555B4202252B43BB
:1015A0002B200024C3552C215323BC850132CB555D
:1015B000FB695200391C9A180120283104F072FB93
:1015C00032680121137C3020C15531203221C355AE
:1015D000CB5580235B422B433322D35534206D23DC
:1015E000391CBC863031C355BA69012004F05AFB5E
:1015F000336838211A683920CA555968C1559A6824
:101600003A20C255591DC97F3B20C1551B693D2059
:101610003C21CB55C35D7F218B43802149422B4325
:101620000B430132F96952008A18391CC35538310D
:101630000120231C0092221C04F0FAFAFFF714FD8B
:10164000FFF72EFDA04227D11A4C2368586902F0FB
:10165000C7FC2368D86E02F0BDFB02F089F93D6A31
:10166000002D0DD12368F9691A1C2C321B6878698A
:1016700004F0ACFC236838691A68B96904F002FD0B
:10168000022001F0B9FFB86905F096FA206800243D
:10169000703006F099FD00E02C1C0448F96802F057
:1016A000B7FE201CBD4611B0F0BDC046B11300000E
:1016B0001C0300204000002044000020880E002071
:1016C00010270000F7B5194C00AF73467960061C6F
:1016D0007146201C3B6002F083FE154B68461B6878
:1016E000144D19689B688A1C5B005A4301315B08E2
:1016F0004B430832D208D200801A8546013329684C
:101700006A465B00D3188A60CB60301C7968FFF7AB
:101710007FFE2B680022061C3968201C9A60DA6064
:1017200002F076FEBD46301CFEBDC04665160000C8
:101730001C03002044000020F0B585B002AF7446C1
:10174000051C3C607960141C7146144802F048FE88
:10175000A200131C0A33DB08DB006946C91A8D4658
:1017600002AC201C002107F0F1FE0D4E281C32684F
:10177000516A936A68320092221C06F047FD336872
:101780007A68596A281C9B6A0092221C06F002F9AA
:101790003968024802F03CFEBD46F7BDD91600008C
:1017A00040000020F7B51E4F75460C1C161C7146F4
:1017B000019500901D1C381C02F012FE211C2B1CF0
:1017C000321C009806F016FB201C05F053FC154B4C
:1017D000201C1B68596A9A6A06F022FC201C05F03E
:1017E00079FB2A1C201C311C05F014FA04F06CFB58
:1017F000051C05F013F9963003783C1C002B09D129
:101800002B79002B06D004F05DF9012802D00120CD
:1018100001F0C5FE201C019902F0FAFDF7BDC0469B
:10182000451700004000002038B5074C7146201CC9
:10183000754602F0D5FD07F0B3FC01F005FD291C4B
:10184000201C02F0E5FD38BDC917000038B50B4C6F
:101850007146201C754602F0C3FD07F061FD07F0DC
:10186000A7FC01F0F1FC002002F062FB01F074FE25
:10187000291C201C02F0CCFD38BDC046ED1700002D
:10188000F0B5C5B000AF73467146041C38487B60A4
:101890003E1C02F0A5FD381C2C36002114224030DD
:1018A0003D1C07F053FEE835301C0021142207F0E0
:1018B0004DFE00212822281C07F048FE381C0A2271
:1018C0000C30002107F042FE3B1C6833D022D3517C
:1018D000143BD422D3514023DB19D822D351DC232B
:1018E000DE51E0220C23D551DB19E422D351204EE6
:1018F000002C2AD16A46583D3A60281C211C14222B
:1019000007F024FE3B1CB833FB61143B3B62283BD1
:10191000BB62184B7D621B681B6A5B00023B9A1C12
:1019200002D0FF22EA52F9E7381C391CCC301831BA
:1019300005F0BAF905F0EAF9381C391CCC30183139
:1019400005F058FC3B689D460BE0381CCC30211C50
:1019500005F0AAF905F0DAF9381CCC30211C05F0A5
:1019600049FC301C796802F053FDBD4645B0F0BD1E
:10197000211800001C030020F7B5304E7146301CC2
:10198000754602F02DFD05F049F82D4C9630236880
:1019900001781A79002902D151B2481C04D10027DC
:1019A000DF60BA420DD118E0D8681A69904202DAB5
:1019B000D8680130D86001290FD0DB6893420CDB76
:1019C000012700223B1C69460E33101C8A800092BE
:1019D0000B7104F067F923681F7123681A79002AD4
:1019E00003D1184A1268127804E0012A03D1154A7B
:1019F000126852781A60186802F022FD2368071CEA
:101A0000EC33186802F040FD3F1A002F0BDD23680D
:101A1000186802F015FD2368071CEC33186802F003
:101A200033FD381A00E0012001F0B9FD01F0D8FDC6
:101A3000301C291C02F0ECFCF7BDC046191900004F
:101A400040000020880E0020F0B5734691B0041CC1
:101A50000E1CAF487146059302F0C2FC04F034FA44
:101A6000049004F0DBFF2278AA4B002A08D17230E0
:101A70000278511E8A41D2B20292002A06D001E0B9
:101A8000012002901A680021B83205E01A68B832C5
:101A90001168FE2901DC013111601B6800211A1C4C
:101AA000B43211700299002904D09B490968097D5C
:101AB00000295FD0181CB3300178C9B2002908D0C2
:101AC00003785BB2022B00D0012313700023037054
:101AD00084E11D1CB0352C78002C09D00124147031
:101AE0001A1CB132BC33017029701170196076E193
:101AF000029800283ED1191CBC310C68002C09DD6D
:101B0000013C012C01D00C6034E0029B0B600323EC
:101B1000137064E11A1CE832126811887F4A9142FE
:101B200028D01A1CC83211887D4A126852888A420D
:101B300020D8794C2068427C181CB830006890424C
:101B400018DB0EAA1180CA331B8806A95380029B9A
:101B500002988B8001230B7002234B708B70CB702B
:101B600015230B7104F09EF86A4B22681B68927C67
:101B7000BC331A60684C2768F87C002800D02DE13F
:101B80000299644D002900D08AE02C68231CE733B9
:101B90001B78002B5CD03B1C2C331B78002B57D0C0
:101BA000231C0E91DC331B680393231CC83303985A
:101BB0001A8843009A533B1C2D33197802984B0026
:101BC000F618031C994206D05A00B21A023A12883B
:101BD00001338018F6E707F0F7FB0E90FA8B231C11
:101BE000E033904202DA1A68013200E000221A6003
:101BF0003B1C221C2E33E0321B7812689A4219DDFE
:101C00007C2308A900265B420124CB70301C1623DC
:101C10000EAA8E800C700B714C708C7004F042F820
:101C20002B68301C1A1CDC32E03316601E6004F096
:101C30007BF8D4E03B1C2D331A780399231C013A1E
:101C4000DC33914202DA0A1C013200E000221A6001
:101C5000C4340137FB7F22689A4219DB00240AA9A9
:101C60001223201C221C8C800A940B7104F01AF899
:101C70002A682948131CC0331968006801311960AB
:101C80000230C07F814203DB1C60B4320223137038
:101C90002A680023111CB231C4320B70136049E072
:101CA0002B681A1CBC3210602A321278002A41D0EC
:101CB000191CC83109880EAA1180CA331B880CA9C7
:101CC000538001230B7002234B708B70CB70192350
:101CD00088800B7103F0E6FF2B682268191CC8315D
:101CE0000C88D08B163984421CD2181CCA30048848
:101CF000508D844216D2097800291BD1C433013299
:101D00001968D27F914215DA0131196012E0C0469C
:101D1000E9190000400000203C0D0020FFFF0000FA
:101D2000880E002001220A70191C0022C431C03321
:101D30000A601A602D4D2B681A1CE6321278002AB0
:101D40004CD104980279002A46D01A1CB03214787B
:101D5000002C43D1264ED86A3768798BBA8BFB8A20
:101D60003F8B009704F058F836682B68718CB28C62
:101D7000071CD86AF38C368D009604F04DF82B685A
:101D80001A1CC8321188CA33B94202DA1A88824250
:101D900014DB08AA11801B880EA95380022300209F
:101DA00001254B708B70CB70172388800D700B71E1
:101DB00003F078FF0D4B1B68B1331D700B4B1B6894
:101DC0001A1CB1321278002A08D00299002905D0D5
:101DD000B03301221A7002E0B1331A7001240548B1
:101DE000059902F015FB201C11B0F0BD4000002049
:101DF0003C0D0020E9190000F7B575460195424DEC
:101E00007146041C281C02F0EBFA404E33681A1C81
:101E1000B1321278002A24D01A1CE6321278002A35
:101E20001FD11A1CCC32117800291AD1B0331B787B
:101E3000002B16D10123137001F00CFA071C01F0DE
:101E4000FDF9334A031C12685D3303CA3A1C9B3206
:101E500004F05AF901F062FF022001F06BFFFFF776
:101E600077F833681A1CCC321278002A45D01A1C35
:101E70000020B0321070274A00901768011C3A6A9F
:101E8000013A0BD3E5685600755B002DF8D02EB2F1
:101E90000131B042F4DA301C0092F1E71A1CE6324C
:101EA0001278002A0ED101290CDD012222703A6A33
:101EB000013A09D300998A42FAD0E568510000201E
:101EC0004853F5E7002903D01A1C0021D43208E05A
:101ED0001A1C181CD432D03011680068814201DC11
:101EE000013111601A1CD4321168043A126891420F
:101EF00005DDB03301221A7001E0D4331A600248C4
:101F0000019902F085FAF7BD991D000040000020FC
:101F1000440000201C030020F0B5C1B002AF75469C
:101F2000F861B961D94871467D603A62BB6002F0E0
:101F300057FAD74E6C4632683C61136892689D1C14
:101F4000520055430133291C520853430831C90834
:101F5000C900601A8546013302AC5B00FC62E318DD
:101F6000CC4CBB622368FC6A00219C60BC6A3C22AA
:101F7000DC60C94C20682C3007F0E8FA2A1C0021EC
:101F8000F86A07F0E3FAA6230020382100253887F5
:101F9000CB55391C2A1C281C34317D6303F082FE8A
:101FA000FFF7EAFC21683C25081CC830CA31FFF75E
:101FB00013F9316800234022D35301200B79E855EF
:101FC0003D223E25D355EB5540225B23D3550421BA
:101FD00023683F20C155391C9A6902203C3103F027
:101FE00061FE326800254823DD530121137C442023
:101FF000C15545254620EB55C35548256C23EB5567
:10200000042223684721CA55391C1A6A0220443128
:1020100003F048FE23683D1C1A1CC8321288DC35C8
:102020002A80CA331B88391C4C3101220020888049
:102030000A700A716B800C2002232A1C4B708B7073
:10204000CB7003F02FFE3368391C5A68186854317E
:102050004A709A680870581D1B698A70C07F0B719E
:1020600004234B71236801325B6992009A18C8708F
:1020700000920022131C022003F0DAFDF869B9690E
:10208000FA6ABB6AFFF7C4F9F862002803D0386A1D
:10209000FFF7F6FBCEE0684692B002AC92B0BC62AD
:1020A00002AC8AB0FC6102AC90B002AE8AB0BC61F6
:1020B00002AC88B0F8607C62F96A02AC4022B86A6F
:1020C0007C6107F043FAF96A4022F86907F03EFAAA
:1020D000F96A2022B86907F039FA301CF96A4022FF
:1020E00007F034FAF96A2022786A07F02FFAF96AC1
:1020F0002022786907F02AFA3C1CF969C034B86AD2
:102100007B6AA1606349BA696060636178690B6842
:10211000E2601C63A061396A201C10222661FFF76F
:102120000BFB3E1C8AB002AA8436BA62F96A1422FA
:10213000301C07F00BFA381CF96A1422703007F0D3
:1021400005FAF96A2822B86A07F000FA381CF96A19
:102150000A22643007F0FAF93B1CAC336B60143B85
:10216000AB604C4A7023DB192B61B86A1368642199
:10217000C9196861A961EE60201C1D61291C3A6AB9
:10218000BB68FFF70FFB88235B00D959281CFFF7BA
:102190005BFC424B1B681B7D002B02D1281CFFF708
:1021A0002BFE3C1CDC34201C396A05F023F8257812
:1021B0006C46AB000733DB08DB00E41AA54602AC33
:1021C0003C622E1C12243B1CDC33D868025F002AC0
:1021D00009DD3A6A013E5B69B000610010185918C8
:1021E000042207F071F9023CA31CECD1284B391CE6
:1021F0001B685C311C6858689A680C7048708A705B
:102200000533DB7F0132CB707E235B424B71224B67
:1022100052001B6800249B6A0C719A1800923B6A5A
:1022200003202A1C03F004FD1A4B1B681C611C636D
:10223000FC68A546174B00221B689A60DA603D696E
:10224000AD4601F037FC01F069FD01F0FFF9012016
:1022500001F098FD01F04EFB0F4BB4201B6818569F
:1022600000F0F2FB041E00D1FC6A0D4B1B681A68DB
:102270000C4B9A4202D001F09DFFFEE703487968BB
:1022800002F0C6F8201CBD463FB0F0BDB91E0000EC
:102290001C03002044000020400000203C0D0020D2
:1022A000AC0E0020CDCDCDCDF0B59DB002AF7446C3
:1022B0007146CF487C6002F093F800F0BFFF061C27
:1022C00000F0D4FF386100F0C5FFCA4B6D461C68B2
:1022D000B860E36800211A1C0E32D208D200AD1A91
:1022E0002269AD460E32D208D2006846801A02AD8D
:1022F0008546FD6102AD7D6272799A18131C0E331A
:10230000DB08DB00C01A53000E33DB08DB00854618
:10231000C01A02AD8546C01ABD6102AD854602A84D
:102320007861B86907F012F9E1687279281C5218CF
:1023300001215200494207F009F9E3687279AE4978
:10234000D2185200786907F001F9E2683969F86932
:102350003D6607F0B9F83D69F02080002918226930
:10236000786A4024002507F0AFF8FC603D62796A86
:10237000F86902F0DFFE032001F004FD9D4D00200E
:102380002B6838861A6858682C212D24CA55E055C8
:102390009A6804242F23DC55984C51233020C355D0
:1023A00023682E21CA555B6901329200391C9A18A4
:1023B00002202C3103F076FC01233422D3552B6804
:1023C00036201B7C3525EB55C35500215A23382573
:1023D000398704223721EB552368CA55391CDA693D
:1023E0000220343103F05EFCB479013C631C2CD034
:1023F0007579013D6A1CF8D0737978696343EB18ED
:102400005B001A5A7E4B9A42F3D0B9696022396058
:10241000F9657866D219694609CA09C1211C3B6869
:10242000F8692A1CFEF70CFD002803D03B6A013333
:102430009BB23B627379BA6963433869EB18D15C2C
:10244000C25C8A18F969CA54D3E7F479013C601C6C
:1024500030D0B17973797D694B43E3185B005A5BE7
:10246000674B9A42F2D0BD6960203D60FD65C0199E
:102470007D6984467D666846624628CA28C0221C5B
:102480003B68786AFEF7DCFC002803D03B6A013326
:102490009BB23B627379B279BD695A432B193D698E
:1024A000F0202919800009189A5C0B787D6AD318EE
:1024B0002B55CBE74F4B3C6A1B68DA681B69D31876
:1024C0009C4206DAFB68013BDBB2FB60002B00D0CC
:1024D0004DE700244025FC63EC53B3793C20C35501
:1024E00073793D213E223F25D355CB55EB5D7F20AF
:1024F0000125834380212B4349420B433F22D3557F
:102500004020D223391CC3553C310820FA6903F01E
:10251000C9FB391C44317C648C800D70F3797F22B7
:102520004B708B70CB78082093431D4380235B4214
:102530002B43CB707A6AD3230B7103F0B3FBB379CF
:10254000013B0FD37279013AFAD37179BD685943CF
:10255000FC698918E8186118A4300C7800782018F4
:102560000870F0E7F379013B08D3BC687D6AE21894
:10257000C8321178EA5C8A18EA54F4E7F869796A93
:1025800002F0D8FD391C4C310024FC648C80B379F6
:102590007F200B70737901254B708B70CB78802274
:1025A00083432B4352421343CB70FA691D23082007
:1025B0000B7103F077FB391C54317C658C800D70F6
:1025C000F3797F244B708B70CB788026A3431D4317
:1025D00076421E237A6A2E4308200B71CE7003F0D8
:1025E00061FB0348796801F013FFBD461BB0F0BDE5
:1025F000492200001C030020FFFF000040000020D3
:10260000FEFF000038B50B4C7146201C754601F0EA
:10261000E7FE00F01FFE98300378002B02D1FFF791
:1026200043FE01E001F0AAFE291C201C01F0F0FE8F
:1026300038BDC046A5250000F0B5A5B000AF724674
:1026400071467861E1487A6001F0CAFEE04C236887
:102650009B683B625B0001333B6501F09DF9236899
:10266000FF229B68F865D31A984200DDFB65F86D80
:102670003B6A0024C31AFB6101F096F93A6D694682
:1026800055002B1C0833DB08DB00C81A85466A4658
:102690006423DC53602001237965FA64612162229E
:1026A000C355CB55D3557C235B426320C35564216E
:1026B000B123CB553A1C391C201C60315C3203F02D
:1026C000F1FA3A6D944206DAF869F96C630022185F
:1026D000CA520134F5E700246C23D1B2DC53012641
:1026E000682069226A23C655D155D955B964022399
:1026F0006B20391CC3556831201CFA6C03F0D2FAE8
:102700002B1C796D08338D46DB08DB006A46D21A34
:102710009546D21A69469546F9637A6301F0A6FD9B
:102720003861301C00F0CAFF211C2A1C786B06F0AF
:102730000DFF211CF86B2A1C06F008FF386D694656
:102740008000031C0A33DB08DB00C91A8D46C91A56
:102750003B69B8619B00684638638D46F962BB608F
:10276000FC640021BA69386B06F0F0FEF86AFF21BC
:10277000BA6906F0EBFE00207865954B786D1B6812
:102780005B6898424BDAF9690026C9B2081CB96344
:1027900001F017F901F0E0F800F086FFFC6A3D6BEC
:1027A000386D0136F217C30F86425341DBB2BB626C
:1027B000002B06D1B96B8819C0B201F002F901F003
:1027C000CBF86B46FB60BB686A460A33DB08DB006C
:1027D000D01A85466A467A6401F050FD00231A1C1F
:1027E00039698A4205DA786C9100415801325B18E8
:1027F000F6E72A68934200D92B602068834200D212
:102800002360F968BA6A8D4604340435002A02D17F
:1028100000F04AFFC4E77B6D01337B65ADE7002123
:102820006C4D79650C1C3A6D944217DA3A6BF96A73
:10283000A300D058CB58C01A854204DDFA69051CA4
:10284000A2187A623C647B6D834200DA786500F0FE
:102850001FFFF96B6300C8520134E4E7786D00F0A4
:1028600017FF5B4B1B685B88984206DA7B69012B7C
:1028700003D0F86D396A78623964574D00262C68A8
:102880003222231DDE670433DA67396C8033642219
:102890001A60022291409A60FA6A01208A58D86030
:1028A0005E60101C3A60B96300F0F2FE9834BB6BB6
:1028B000396B206058582C6800F0EAFE2B68012123
:1028C0001A1CAA32A0344942206011807A69AE33C2
:1028D0001E80012A2BD17A6B331C396D8B4209DAA9
:1028E000F86B5900415A1088884200D21180013398
:1028F0000232F2E73A6C786B53001A5AF96C131CE7
:102900008A4200D20B1C9BB27021FB640123CB5581
:102910007422BB6C0020D05372217122D355CB5549
:1029200073220223391CD35570317A6B10E0786D15
:1029300000F0AEFE391C80B278310222F864B86C27
:102940000123CA70FA6B487088708E800B70301C3F
:1029500003F0A8F9386C8823D8537A6AFB6B8A2174
:102960004400CA531C19FA6C23888E21CA538C2048
:10297000391C8031C35304234B708B700025022314
:102980003A1CCB708832B2230126281C8D800E7031
:102990000B7103F087F923880F4C2268111CE83172
:1029A00009680988994224D206F0BAFC051C06F091
:1029B0000BFC03787865002B10D0301C03F0B4F9C1
:1029C00023687E6DE83302361E6023E0D9250000BF
:1029D000880E0020FFFFFF7F40000020002D19D14E
:1029E000164B1B68DB7C002B14D1301C03F090F9D4
:1029F00010E0E7321278002A0CD0114E306842887D
:102A00009A4207D9281C03F08FF923683268E8330B
:102A100002321A60796900290AD17A6AD0B200F0CC
:102A2000D0FF0848796801F0F3FCBD4625B0F0BD41
:102A300003F032F8072800D193E6EEE73C0D0020C2
:102A4000880E0020D9250000F0B5814D8DB072466A
:102A500071460190281C039201F0C2FC06F060FC54
:102A6000061C03F067F8071C03F072F8794C02901B
:102A700023681A1CE4321278BA4226D0002F0CD0F8
:102A800000226B469A8269463B230B75101C04A9F1
:102A90000492022603F006F912E0029A3D1C002A75
:102AA0000FD106A93C23381C3A1C8F8006970B7166
:102AB00003F0F8F82368E6331E78731E9E41F6B2E1
:102AC00001252368E4331F701FE01A1CE5321278D9
:102AD00002998A4218D0002906D1E6331E78731E67
:102AE0009E41F6B23A2301E039230226002208A9CA
:102AF000101C8A8008920B7103F0D4F82368029AA4
:102B0000E5331A70012500E0002502F0CDFF071C17
:102B100003F002F8019B032B02D0002F03D107E042
:102B20000125002F38D0002002F0C6FF012533E038
:102B30002368E4331F88002F2ED10199012902D088
:102B4000022904D00EE0019803F0E2F80AE0381CF4
:102B500003F0DEF82368E7331B78002B02D0381C23
:102B600003F0E2F803F0CEF82368071CE6331B7885
:102B7000834211D0002802D01123012601E0122344
:102B8000061C00220AA9101C8A800A920B7103F00D
:102B900089F82368E6331F7006F0C2FBB04237D0D5
:102BA00006F0BEFB06F004FB071C301C06F000FB21
:102BB000019006F0B5FB301C06F0ACFB06F074FB90
:102BC000254B1B68187D002801D1012D0ED0234B09
:102BD0003A1C1B689B3203CB019B9B3303F094FA96
:102BE000002001F0CFF8FEF7B3F904E02368CC33FE
:102BF000187001F09DF9002003F096F82368002179
:102C00001A1CE7321170164AE833126802321A6051
:102C100006F086FB06F0D8FA0378002B08D003F004
:102C20007DF82368E7331A78824201D018700125B5
:102C300002F0AAFF041C03F0F1FE0379A34200D0C6
:102C400004710348039901F0E3FB281C0DB0F0BDAB
:102C5000E9290000400000203C0D00204400002035
:102C6000880E002038B5054C75467146201C01F0D1
:102C7000B7FB291C201C01F0CBFB38BD052C000044
:102C800038B5054C75467146201C01F0A9FB291C7E
:102C9000201C01F0BDFB38BD212C000038B5054CCF
:102CA00075467146201C01F09BFB291C201C01F07D
:102CB000AFFB38BD3D2C000038B5054C754671465C
:102CC000201C01F08DFB291C201C01F0A1FB38BD4C
:102CD000592C0000F0B599B000AF74467146786287
:102CE000D2483C6101F07CFBD14D69462C68656897
:102CF0002068FD63684343195A000832D208D200A5
:102D0000891A9A008D460A326D46D2080733FD6251
:102D1000D200FD6BDB08891ADB008D46AD00C91AB5
:102D20007D636D468D463D63C91A6D46C14B8D4628
:102D3000B8633D64386CB96B6D46FD611D6846181B
:102D4000AE62E2686862002106F000FC2269301C75
:102D5000002106F0FBFBE6680021321C684606F005
:102D6000F5FB2469B86B221C0021684406F0EEFBD9
:102D7000FA6BB86B53005B083B62FB6AFA6AEB6163
:102D800043005908D3182B62B961B2000021386B97
:102D900006F0DCFBBD6BA200AB003D6B9C08EB18A2
:102DA000181C0021BB627C6106F0D0FBFEF72AF8FC
:102DB000786400F043FA7C6A022C00D1A1E0032C75
:102DC00000D13BE1012C00D004E27D6B7B6CAD08AF
:102DD000BD632F331E78002E46D0002000F0D2FFB6
:102DE000934C9549226809685368013B21D39D00A3
:102DF00014683D64651EFD63F7D33D6C88694059D6
:102E0000956878636C431C1948690134A4002558FF
:102E1000786B0024854200DD2C1AF86BBD6B4543AE
:102E2000386B5D19AD0028580419386B2C50FC6BB9
:102E3000E0E71369804A7C6911685A1E12193D6BDC
:102E40009200AA18013B0DD38869043804684869C8
:102E500005680020A54200DD281B1468043A2018EC
:102E60005060EFE7013EB6E7714D2E687468013C93
:102E700016D33568013DFAD33B6A7A6C6B43E3188D
:102E80005B003B64BB6B2F326B431178E3183A6BEA
:102E90009B00985806F098FA3B6CF96A5852E9E79B
:102EA0007A693B6BB8699500F96A5D194300CB18E4
:102EB00034693B63013C0AD37A6CA3002F3211784A
:102EC000E85806F081FA3A6B66009053F2E7FFF794
:102ED000D7FE574C492123684A241A791868482597
:102EE000CA55E2555A1D1B69E8554C20D27FC3557F
:102EF0007E234B255B424D21381CEA55CB5548308B
:102F000092E07C6B7B6CA408BC6330331B787B63E2
:102F10007C6B474D002C41D0002000F033FF2A6825
:102F2000454B11681E684B1E3B6424D33C6CB86B48
:102F3000536860435D1EAC4660443D6B84002C19B1
:102F4000FC63013B15D390680124484384469C44AC
:102F5000F86BA444006865467469AD003860285970
:102F60003C688446A444F86B654605600438F86301
:102F7000E7E7396CD7E7304B126919689300043BD7
:102F8000013A07D3BC6ACD69E458E8582018BC6AF6
:102F9000E050F4E77D6B013D7D63B9E72E6874680E
:102FA000013C16D33568013DFAD33B6A7A6C6B431A
:102FB000E3185B003B64BB6B30326B431178E31862
:102FC0003A6B9B00985806F0FFF93B6CF96A58522F
:102FD000E9E7BA69FB6A550034695D19013C0AD317
:102FE0007A6CA30030321178BA6A6600D05806F0C5
:102FF000EBF9A853F2E7FFF751FE0D4C512123687E
:1030000052241A7918685025CA55E2555A1D1B6971
:10301000E8555420D27FC3557E2353255B4255216A
:10302000381CEA55CB555030F96AD1E0752C0000B8
:103030001C03002044000020400000207C6B7B6CBF
:10304000A4087C6231331B78FB62FD6A684C002D5A
:1030500000D1A4E0002000F095FE664A20681568C3
:103060004368AC46013B50D30268511EFAD38468D2
:10307000654662439A186D690132920052593D6B60
:103080007A637A6A4A439A18920054597A6BFF25F8
:10309000A41AFF2C02DCE543ED1725407A6CBD61D4
:1030A00033321278FD693A62EE18FA6B3D6A4A4390
:1030B000AC420DDDB45C0134E4B2B4547E6C64B255
:1030C00032363678B44217DB3D6CEC18BD6912E03D
:1030D0007C6CB65632342478A6420DDA3D6CEC187E
:1030E000A65CBD69B54200DA351CA554FC69002513
:1030F000E218FC6B4C4315557A6A7C6B4A433D6B76
:103100009A18920054510A1CAFE73A4A03691668AC
:103110005A1E9200013B3ED3F569BC6AAD58A458D3
:103120003D62601BFF2802DDFF257D6303E0C44391
:10313000E41704407C63796CFC6933310978BD6B1A
:103140008C46611960450EDDC85C0130C0B2C854C0
:10315000796C40B232310978884217DB3C6C6119D6
:103160007D6BCD5412E0C8568446786C32300078BE
:1031700084450BDA3C6CBD6B6019C45CA4467C6B67
:10318000644500DA6446C4540020C854386ABD6AF5
:10319000A850043ABEE7FC6A013CFC6255E7FFF721
:1031A0008BFD2368582019681A7959245A25C1556E
:1031B000E255EA555A1D1B69D27F5C215B20CB5535
:1031C0007F23C2555B425D22381C396CD355583081
:1031D00002F00EFB084B00221B6808485A629A62F4
:1031E000DA611A62396901F013F9BD4619B0F0BD10
:1031F0001C0300204000002044000020752C00002B
:10320000014B18607047C04640010020014B186810
:103210007047C04640010020014B58687047C046C7
:1032200040010020014B98687047C04640010020D3
:10323000014B18607047C046940E0020014B18687F
:103240007047C046940E0020014B18607047C0467E
:10325000900E0020014B18687047C046900E002069
:10326000014B18607047C0468C0E0020014B186857
:103270007047C0468C0E0020014B18687047C0464E
:103280004C01002010B50D4B00201B78AA2B12D149
:103290000B4B1C780B4B64B218780B4B40B219786F
:1032A0000A4B20181A780A4B49B21B78401880182C
:1032B000C01A43425841C0B210BDC046500002007F
:1032C00051000200520002005300020054000200AC
:1032D000550002008023DB020022188059809A806A
:1032E000C046024B188880B27047C04606000400F2
:1032F00013B5094A042413780021DBB21C43019161
:103300000198F421FF31884205DC1370C046147027
:1033100001990131F3E713BD0D00005082B0002286
:10332000019201AB55221A70392252429A70012241
:10333000DA70019AA023DB059A6102B07047A023DE
:10334000DB059869C001C00F70470122A023DB058F
:10335000104002060249986908401043986170477E
:10336000FFFFFFFE82B00022019201220A4089186D
:1033700001303F2201AB1040C9B21870481C023125
:1033800002408900D9705A70019AA023DB05DA61E6
:10339000196A024A0A401A6202B07047FFCFFFFF63
:1033A0000002064B000A0138002258609A6005228C
:1033B0001A60C0461A68D103FCD5704710E000E0DF
:1033C000F0B5514F85B03B6894339A7819681D78F1
:1033D000DE780F231407994312092D0701922D0F50
:1033E0000B1C80222B4352001343484A0395484D3F
:1033F0001340484A2B4048491340240F0B40019981
:10340000220413430A0545493607360F0B40009640
:1034100013433206424E029433401343414AA024E0
:10342000E4051340E360FFF763FF3B68E268953310
:103430001B781540DB069B0FDB021D43E560E2684D
:1034400080239B001343E360E26880239B011343C6
:10345000E360029C039DFFF715FF002813D0324F55
:10346000882039781E34C9B205F0AEFF397844435C
:10347000C9B2882005F0A8FF0F3545431E3C002344
:103480000F3D9C4203DB231E0F2B00DD0F230F2279
:10349000954200DD151CA024E4051F491A40E3688D
:1034A00012040B401343E360EB43E268DB171D405B
:1034B0000F239A431D401543E560E368F0229343D0
:1034C00080221343E360E368144A18481340E36022
:1034D000E3683340E360FFF763FFE26880235B0546
:1034E0001343E3600099E2680B0616401E43E66052
:1034F0000F48FFF755FF019B08491A05E3680B4089
:103500001343E36005B0F0BD900E0020FFF9FFFF0C
:10351000FFE7FFFFFFDFFFFFFFFFF0FFFFFF0FFFF2
:10352000FFFFFFF0FFFFFFEF54000200FF0F00005E
:10353000FF6F0000064A074B12680120E83212684C
:1035400019789040021C0A43D2B21A707047C046E4
:103550004C010020290000500549064B09681A78E3
:10356000E83109680120884082431A707047C046DC
:103570004C01002029000050044B1878044B1B68B4
:10358000E8331B6818410123184070472900005098
:103590004C010020A0230122DB055A707047044B28
:1035A00082B0019001AA188092789A7002B0704798
:1035B0002400005007B500F043FF064B019001AA1C
:1035C000188092789A70044B00221A70034B0122E3
:1035D000DA7707BD240000500000002008000050EA
:1035E000034B00221A70034B0122DA777047C04662
:1035F000000000200800005072B6084B1B5C002B36
:1036000003D1C04662B630BFF6E762B6A023DB0541
:103610009968034A0A409A607047C046000000203B
:10362000FFFFF9FF72B6074B1B5C002B02D1C046AF
:1036300062B6F7E762B6A023DB059968024A0A4042
:103640009A60704700000020FFFFF9FFA023DB0510
:103650005A680121120E58689143034A0906024034
:103660000A435A607047C046FFFFFFFE08B5074B8C
:103670001B681A1C9C3212789D331B785200013251
:103680005043994005F0A0FE08BDC046900E0020B2
:1036900008B5044B1B689F33197849000131FFF7C7
:1036A000E5FF08BD900E002008B5A0230120DB0532
:1036B0005870FFF7A1FFFFF7C9FF08BDF7B5A026B7
:1036C000041CF605042807D1554B1B681A1CA432AC
:1036D000A83317681B6824E0524B1B681A1C8C33F4
:1036E0001B68883217687361FDF79EFBE73003782B
:1036F000002B17D005F014FE05F066FD01797F223E
:1037000011408904019171690B1C47490B400199D3
:10371000194371614179444B0A40716992040B402D
:1037200013437361A023DB051F611E691F231E4025
:10373000FFF7A8FD00280AD03C4B882019780436F2
:10374000C9B205F041FE46430023043E03D4331EB4
:103750001F2B00DD1F23A022D205108A1F210B4042
:10376000884303431382022C16D007DC002C13D0AD
:10377000012C2DD12B4B1D689E3529E0042C07D040
:1037800023DB052C24D1264B00241D68AF351FE018
:10379000234B1D68AC351BE0FDF746FB031CCC3307
:1037A0001B78002B03D01E4B1D685D3510E0E73001
:1037B0000378002B05D005F0B3FD05F005FD851D50
:1037C00006E0184B1D689B3502E0164B1D68A135BD
:1037D000A023DB05596928783F221040914301431B
:1037E000596168781F215D6908401149C00229406C
:1037F000014359610F49640009680C19211C773194
:103800000878596810409143014359607834217811
:1038100058680A401102084A02400A435A60F7BD3C
:10382000940E0020900E0020FFFF03FE54000200C3
:10383000FF07FFFF4C010020FFC0FFFF294BF0B541
:103840001A68294B85B01B689E331B785B069B0E5C
:103850000193931DD97F00238D005519581E5B18C5
:10386000002B27D053181B1826331B788024D3181D
:103870005E78A023DB055F68E4033C435C60019C49
:10388000B606240400945F68B60EBC46174F644623
:103890002740009C27435F60C046243676008400A2
:1038A000F65A2C19983426605E68114C34405C60DE
:1038B000031CD3E76F460293BB8101233B72931D28
:1038C000DB7F7F217B72BB72FB7A98328B430421B2
:1038D0000B43FB720F20B02302A93B7302F0E2F905
:1038E00005B0F0BD4C010020900E0020FFFFC0FF8E
:1038F000FFFFBFFFF0B585B0FFF7A0FF154B002518
:103900001E68B31DDC7F631C9B005B420093A30019
:10391000F3180193009B043D9D4208D0019A0121B8
:10392000571998373868FFF7A1FE3860F2E76A4602
:1039300000239381012313720423D372B0235472A2
:1039400094721373321C98320F2002A902F0AAF964
:1039500005B0F0BD4C010020044B00225A70A0239A
:10396000DB055A7001221A707047C0460000002023
:10397000A023DB059968064A0A40802189020A4390
:103980009A60044A0021917001229A707047C046E3
:10399000FFFFF9FF00000020024B1B6890331868FE
:1039A0007047C0464C010020024B1B6890331860E2
:1039B0007047C0464C010020A023DB059868C0B2C8
:1039C000704730B5A023DB059B68DBB283420ED085
:1039D00001DA013300E0013BA022D2059568FF2106
:1039E0001C1C8D430C40291C21439160EEE730BD27
:1039F000A023DB059968802252020A439A609968E5
:103A0000094A0A409A609A68120112099A60D968B4
:103A1000064A0A40DA60D968054A0A40DA60D9687D
:103A2000044A0A40DA607047FFFFFFF0FFFEFFFF25
:103A3000FFDFFFFFFFFFFFEF1B4B10B51A680121EF
:103A4000131C92331878A023DB059C6808401749A3
:103A50000004214001439960933210789C68144916
:103A60000007000921400143996011789A6809090B
:103A70001201090712090A439A60D968802252008C
:103A80000A43DA60D968802292010A43DA60D96871
:103A9000802252050A43FA20DA60800000F0F4FC2C
:103AA000FFF77EFC10BDC046900E0020FFFFFEFF1A
:103AB000FFFFFFF008B50020FFF79EFD08BD034B98
:103AC0001B689C331878400001307047900E00202E
:103AD000024B1B689D3318787047C046900E00203B
:103AE0000048704700100050004870470020005008
:103AF0000048704700400050074B01201B685B796D
:103B00009A1C0340D318054A12686632107858434D
:103B1000034B8000C0187047940E00204C01002019
:103B200004400050F7B51B4B051C1C68A3795F1EB1
:103B300015D36279013A10D36079561C811C01912A
:103B4000012108400199081858433118124889008A
:103B500009180868E8400860ECE73B1CE7E7FFF756
:103B6000CBFFA37A002201339C466346013B9C466F
:103B70000FD3617A96000191861900230199994229
:103B800005D09F00F1590133E940F151F6E7521891
:103B9000EBE7F7BD940E002000400050074B0120DA
:103BA0001B685B799A1C0340D318054A126872326D
:103BB00010785843034B8000C0187047940E0020C3
:103BC0004C01002004400050094B01211A68537930
:103BD000D0799A1C0B40D318064A013012686A3219
:103BE00012785343C018044B8000C0187047C04679
:103BF000940E00204C01002000400050F7B5434BCC
:103C00001D682A7853B2042B1DD1414B19680B1C37
:103C1000AE331F7802235E1E77D34A79013A10D360
:103C20004C79551CA01C01900120044001980419F6
:103C30005C432819374C800000190468FC4004607C
:103C4000ECE7331CE7E7002A45D0022B21D1FDF732
:103C5000EBF8CC3003782E4C002B02D023685F3376
:103C600002E02D4B1B689D331878FFF75BFF25683A
:103C7000EC79002C2FD0FFF7A7FF061C013C2AD3BC
:103C8000697A201C05F0F6FB89008A59A300F250DE
:103C9000F4E7032B03D1204B1B68A33318E0012B5F
:103CA00011D1FFF77BFF1A4B061C1B685C79013CA6
:103CB00011D32B193A331B789B009859FFF7E8FC76
:103CC000A300F050F3E7052B05D1114B1B68B1336E
:103CD0001878FFF727FF104B1B689A331B78002BCF
:103CE00013D00B4B1A685379013B0ED35179012540
:103CF0008C1C294061189479581C6143401805496F
:103D00008000401800210160EEE7F7BD4C01002063
:103D1000940E002000400050900E002008B5A02313
:103D20000120DB055870FFF767FCFFF78FFCFFF7FA
:103D300065FF08BD70B5041C104E114D11D1012056
:103D4000FFF7BCFC336801221A70A023DB056C70FE
:103D50005C701A70FFF7E2FFFFF778FCFFF7CAFD0F
:103D60000224201CFFF7AAFC336800221C70A02349
:103D7000DB056A705A7001221A7070BD4C01002078
:103D80000000002008B5FFF7D5FFFFF7C7FF08BD0B
:103D900008B5A023DB05011C58683F221140904361
:103DA0000843586059685868114001310A401102AF
:103DB000064A02400A4306495A6000224A705A7075
:103DC00001221A70FFF7AAFF08BDC046FFC0FFFF1F
:103DD0000000002010B5A023DB051C6A0005064A80
:103DE000000D010422400A431A621A6A120B1203E0
:103DF0001043186210BDC046FFFF00F073B5174BAB
:103E0000A0221B68D20590339168196891601C78D4
:103E1000FFF738FA124D002812D0124B124A1B78C5
:103E200012782E6852B25BB20092201C1021D1226F
:103E300001F0F2FF2B689436306094331B68E4186D
:103E4000002C01DA002402E0FF2C00DDFF242B68A7
:103E5000E0B290331C60FFF7B4FD73BD900E0020FC
:103E60004C010020530002005200020008B5FFF789
:103E7000C5FFFFF7A5FAFFF751FA234BC0229200C6
:103E800098582249014099509958FF208143402079
:103E90000143995098581E49014080200004014375
:103EA0009950985880210002000A09060143995050
:103EB000012102221A60082019600421196018608B
:103EC000144B00205860144B186901431961134BBF
:103ED0001B68197A124B1B68E833002900D10322B2
:103EE00010491A6000230B700F49A0220B700F4974
:103EF000D2050B709363D36B9B0E9B06D36362B6A4
:103F000000F09CFE08BDC04600E100E0FF00FFFF9E
:103F1000FFFF00FFFCE100E000ED00E0940E002058
:103F20004C01002029000050280000502A000050B9
:103F300008B5002801D0012801D100F07FFEFFF76D
:103F40005DFFFFF73DFAFFF7E9F908BDF0B5214B3A
:103F500013211B680224DA7A0023133AD2B2914269
:103F60005B41E41AA023DB0558693F2259681040E1
:103F70008022D2030A43A3B05A60411EA023C9B2D3
:103F8000DB0502AAFF2910D05F683F26124D0E40C4
:103F900036043D4035435D60C046251C24356D0028
:103FA0005D5B4B00D5520139E8E75C680B49214065
:103FB0005960694600238B8001230B7002234870EF
:103FC0008870CB700320B3230B7101F06BFE23B01C
:103FD000F0BDC046940E0020FFFFC0FFFFFFBFFFF3
:103FE000F7B5041C02F008FD124B1A680023506854
:103FF000411C0191019D16689D420CDB97680136BA
:104000007E4399008C469E1900216546B600615199
:1040100001333151EEE701239E420ADB956800210E
:104020005D43AF002D180135AD00395101332951E1
:10403000F2E7F7BD1C030020044B054900221A607B
:1040400059609A6005221A607047C04610E000E08F
:10405000FFFFFF0010B5A023DB059C6899680C4B9F
:10406000C9B21B68E40394331B68E40F591AFF318B
:10407000E62359430134074BA040C918041C0648E5
:1040800005F0A2F9C1B2201C05F09EF910BDC04692
:104090004C0100205C5D000040420F00014B0022FB
:1040A0001A60704710E000E030B50E4D0E48AB6866
:1040B00085B0C01A0193FFF7CDFF02A901230024A8
:1040C0000B704B708B7004230190CB70201C6F23FE
:1040D00001AA8C800B7101F0E5FD01982C6005B000
:1040E00030BDC04610E000E0FFFFFF0010B5041C2B
:1040F000FFF7A2FF201CFFF71DFEA023DB05012018
:104100005870FFF78FFAFFF7A1FAFFF777FDFFF777
:10411000CBFF10BD37B5051C0424291C221C6846A2
:1041200005F0D2F92919221C01A805F0CDF9009952
:1041300080230ABADB05DA6001990ABA1A6137BD31
:1041400040BA80B2704700BA70470023114A124942
:104150009A188A4204D21149C95804331160F5E70C
:104160000F4B104A191D043B934203D200221A60E0
:104170000B1CF6E70C4B0D4A1360EFF30882043377
:10418000191D043B9A4203D9094818600B1CF7E734
:104190007047C0464000002030030020B096000069
:1041A000340300203C0D0020D00E0020AC0E002077
:1041B000CDCDCDCDF0B5294D89B029482C6800F082
:1041C00063F9FFF7EDF80026264FBC4222D2803774
:1041D0003B1B2027832B00DC9F1002A9FAB201238E
:1041E00000204A708A70BF10221C0B70CB70888030
:1041F00001F058FD231C3A1C013A08D3002E04D1CB
:1042000019491868884200D01E1C0433F4E7BF0027
:10421000E419D9E72B6804A9F31A002501930423B4
:104220000124CB70281CA72301AA8D800C704C7030
:104230008C700B71843701F035FD06A90420C8701D
:10424000A823BE1B281C01AA8D8001960C704C70FF
:104250008C700B7101F026FD09B0F0BDAC0E002092
:10426000801A060080370020CDCDCDCD024B1B68D3
:104270000633D87F7047C0464C01002070B5051C3E
:10428000FFF78CFC0A4B1C68A31DDB7F9A00AD185E
:104290000022511ED218002A09D0E21852182632E4
:1042A0001278920016588A00AE500A1CF1E770BDD1
:1042B0004C01002030B50B4B1B689A1DD27F940037
:1042C0001C195300C01800230133D11A013107D043
:1042D0009D00651B983559002D6849424552F3E70A
:1042E00030BDC0464C010020A02382B080B2DB0567
:1042F000D88502B07047A023DB05D88D82B002B00C
:1043000070470722A023DB0510404201188AE021F4
:104310008843104318827047F8B50C1C051CFEF743
:10432000A5FF144908688379013B11D30E6872799F
:10433000013AF9D30E6870790F4E584336688018E9
:10434000F6182818A03607783679BE190670EFE7F8
:104350000B68DB79013B08D3074AE15C1268D2188D
:10436000C83212788A18E254F4E7281C211C00F0A5
:10437000E1FEF8BD940E0020900E0020134BF7B51F
:104380001C686946E26800AF131C0E33DB08DB00D3
:10439000C91A23698D460E33DB08DB00C91A0C4BA2
:1043A0006D461E688D467960281C311C05F08CF81E
:1043B000F0239B00F1182269786805F085F8281C25
:1043C0007968FFF7A9FFBD46F7BDC0461C03002072
:1043D0008C0E0020A023DB0518690006400F7047F3
:1043E00070B5051CFEF71EFF0468061C013C08D3CF
:1043F0007268E300D3181A68AA42F7D15B6898473D
:10440000F4E7024B013D1D6070BDC046980E0020D0
:1044100070B5051CFEF706FF8468061C013C08D336
:10442000F268E300D3181A68AA42F7D15B6898478C
:10443000F4E7024B013D1D6070BDC046980E0020A0
:1044400038B5A023DB0599689D680C4B041C1B68DC
:104450000B4894331B68ED03C91AC943E623C9B25C
:104460005943084BED0FC91804F0AEFF044B01355A
:104470005843211C284104F0A7FF38BD4C010020FF
:1044800040420F005C5D000038B5A023DB05996851
:104490009C680A4B051C1B68094894331B68E4039D
:1044A000C91AC943E623C9B25943064BE40FC918D8
:1044B00004F08AFF68430134204138BD4C010020DC
:1044C00040420F005C5D0000002801D0133907E076
:1044D000122902DD262902DD1239491000E000E030
:1044E000081C7047F0B5AA4B00261D68041CEB7A27
:1044F0001322133BDBB2301C9A427041B1B0C7B2F9
:10450000059702273F1A311C142209A805F01EF84E
:10451000A04B20681B68882201936B331870019BA5
:1045200061686E3319700EA8311C05F00FF8311C4C
:10453000142209A805F00AF8974B0EA8196844221E
:1045400004F0C2FF022F04D11FA80EA9442204F0D8
:10455000BBFF00272E1C0497771B03976B7901364E
:104560009F423EDAB77A0598391CFFF7ADFF09A9DB
:10457000095C0EAB0291029A442151430918591863
:10458000721B0A717911069109A90A5C11214A432B
:10459000069952181F210F40063201219200B9409E
:1045A0000F1CD1580F43D7500399019F3F237A180E
:1045B0005178071C99438C4602991F408901069146
:1045C000614603970F431F40069B1F43029B577092
:1045D000013309AFDBB23B54049F9F42BCDA049322
:1045E000BAE7019B049D6D3300261D700296684B4F
:1045F000029E19688F79BE4200DBBEE0029D491918
:104600000B1C2833DA79644B1E68331C9A331B78F1
:10461000B446039303980023984204D0781E854241
:1046200001DA2931CB790120011C91400591111C3F
:104630002039051C8D40A9011D1C203D061CA840E9
:10464000049D9E408909069607900195019D002DC5
:1046500038D0019E4425013E7543019666680EA838
:104660002E544519281C002620302E624668B60EAE
:10467000B606009646601F2A02DC0598286204E010
:104680008D01009EAD092E434660039D002DDDD0B7
:10469000029E781E8642D9DA019E442575430EA8F3
:1046A00045191F2B04DC2E6A069830432862CDE79B
:1046B000686A079E0643B601800EB609800630433D
:1046C0006862C3E7029E6046331C45786344C83382
:1046D000AD065F79AD0EFEF7D5FD002813D02F4E45
:1046E000882031780137C9B204F06EFE3178474333
:1046F000C9B2882004F068FE02354543013F023DFF
:10470000019E791C03D03E1E1F2E00DD1F263F2D6B
:1047100001DD3F2526E0EB43DB171D4022E0019938
:10472000442251430EAB59188F781F239F43301CEE
:1047300018403B1C03434F788B703F23281C9F433A
:1047400018403B1C034320684B703B281CDC504343
:10475000134FC01904F0B8FE2368019F01330137DD
:1047600023600197019F04988742D8DB029D63680C
:10477000013501330295636039E7064B22681B68F7
:1047800001206C331A7000E0002031B0F0BDC0464B
:10479000940E00204C010020900E002054000200D6
:1047A0000080005030B585B0FEF760FD064B01A8D3
:1047B0001B68021C843332CB32C2FFF793FEFFF733
:1047C000DDFD05B030BDC0464C010020F0B5564BB4
:1047D0009FB01B6800270493DB7A1322133BDBB2E4
:1047E000391C9A427941CBB2051C391C142208A805
:1047F000079304F0ABFE4D4B2A681E680DAC331CCA
:104800006F331A706968023359701F70391C442263
:10481000201C04F09BFE391C142208A804F096FE0C
:10482000434B201C1B684422191C069304F04CFEC9
:10483000B31DDF77049A53799F4233DA049A0798BD
:10484000D319DB7A191C0593FFF73EFE08AB1B5CFE
:104850009C46002B0BD1B31DDA7F511CB218D977BF
:104860000732FBB20DA9D37701330A1813710DABD0
:1048700019180979F2193A3201391170059901377D
:104880004A110632920003921F220A4001219140F0
:10489000039AD2581143039AD1506346013308A9B1
:1048A0000B54C7E7069B5E78B606B60EFEF7EAFC29
:1048B00000280AD01F4B882019780236C9B204F0AC
:1048C00083FD46430023023E03D4331E3F2B00DD0D
:1048D0003F23A2781F218A436178A2703F2291432F
:1048E0001340626A0B4369686370930E21709B06E4
:1048F000002119A814222162636204F027FE2868AF
:10490000442250430C4B211CC01804F0DDFD6A68A2
:104910002B6801326A60054A013312680120703247
:104920002B6013701FB0F0BD940E00204C010020CE
:10493000900E00205400020000800050F0B5BA4BE9
:10494000B1B01B680024039353331B78071C133B3F
:10495000DBB21322201C9A426041C5B205950225A4
:104960002D1A211C142209A804F0F0FDAF4B3E685B
:104970001B68211C049363331E70049B78686633A4
:10498000187088220EA804F0E1FD211C142209A849
:1049900004F0DCFDA64B0EA819684422443104F053
:1049A00093FD022D04D11FA80EA9442204F08CFD12
:1049B0000025039C0695039E039DA61B07966B7A14
:1049C00001349E4237DA231C52331D780598291C86
:1049D000FFF77AFD09AA115C6E118C46029611212F
:1049E00066467143029E0EAB89191F26354006317B
:1049F00001268900AE40351CCE583543CD50079E68
:104A0000049D3F23A919051C1D4058316646029597
:104A1000B6018D790196029E9D432E431E40019B57
:104A2000069D1E4363460133DBB28E7113549D42D3
:104A3000C1DA0693BFE7069E049BF6B2653307967C
:104A40001E700024784B04941B68049D9A7A95424A
:104A500000DB9BE0049D069C5A1958321178012214
:104A6000081C2038161C82408E409001B4468009F4
:104A70000394039C002C1BD0039D4422013D6A43F8
:104A80007E680EAC1655A2180395141C1F2905DC70
:104A9000566A65461562B20E920607E00025156259
:104AA000666A8201B50E9209AD062A436262E0E7AA
:104AB0005E4A1168221C587A824210DA88185830EF
:104AC00084794425A006A4096C43BE68800E201892
:104AD0000EAD0136281806710132BE60EBE7544B6B
:104AE0001B681A1C4632453316781C78F606A40655
:104AF000F60EA40EFEF7C6FB002813D04D4D8820FD
:104B000029780136C9B204F05FFC29784643C9B25E
:104B1000882004F059FC02344443013E023C002545
:104B2000701C03D0351E1F2D00DD1F253F2C01DD1D
:104B30003F2402E0E343DB171C40039E06988642B5
:104B400021DA0399442251430EAB59188E781F2362
:104B50009E43281C1840331C03434E788B703F2320
:104B60009E43201C1840331C03433868324E504388
:104B70004B70801904F0A8FC3B68039E013301369A
:104B80003B600396D9E7049C01345BE7274A3E6803
:104B90001468079D221C643216703868D0707968DA
:104BA0000532517015700022597A8A4210DAA11824
:104BB0005831897944208D0689094843AD0EB9687A
:104BC00040190EAE0131301801710132B960EBE7C6
:104BD0001AAD03950025069EB5421EDA44236B43A9
:104BE0000EA8C618706A0021820E920631627262A7
:104BF0000398142204F0AAFC3868442148430E4A62
:104C0000311C8018442204F05FFC3B68039E013392
:104C100044363B6001350396DDE73B68683401208C
:104C2000237031B0F0BDC046940E00204C0100202E
:104C3000900E00205400020000800050F0B56B4B35
:104C400000241F681322FB7A211C133BDBB28DB0BA
:104C50009A4261410226CBB20C22761A04A8211C8A
:104C6000019304F073FC142207A8211C04F06EFCCD
:104C70007A793D1C02920299EB1B8B4213DAE97A96
:104C80000198FFF721FC132801D90020ACE007AA06
:104C9000135C0135B342F8DA0133DBB213549C42A2
:104CA000E9DA1C1CE7E701220492B879002181426D
:104CB0000ADA131C9D1AA54203DA3B2BE5DC01330B
:104CC000F8E701311A1CF2E70492FB79002B11D1AD
:104CD000002304A80493FFF779FD04A8FFF702FC62
:104CE000424B434D1B68DE79002E3ED004A8FFF7EF
:104CF00025FE50E03B1C53331B780025133BDBB2F1
:104D00001322291C9A426941CAB202920222521A03
:104D1000019207A8291C142204F018FC7B7A3E1C7F
:104D20000393039AF31B934214DA331C5333197819
:104D30000298FFF7C9FB1328A7D807AA135C0199AB
:104D400001368B42A1DA0133DBB213549D42E8DA1B
:104D50001D1CE6E7EB43DB171D40BB7A5D43049B5C
:104D60006D00ED183B2DB3DD8FE72868311C042260
:104D7000633004F0EBFB2868311C0422673004F038
:104D8000E5FB2B680499CAB2191C633168330A70B9
:104D90004A700A711A702D6864002B1C6F331A78E0
:104DA000073BDA73291C1B7878310B704A7008397D
:104DB00009782A1C7A3211700F3A1678291C7B3137
:104DC000281C0E707D305374022204F07DFB2F1CD2
:104DD0002B1C7F33083734195C701E706E35FE67EC
:104DE0002A7801339A6001200DB0F0BD940E0020A6
:104DF0004C0100200D4B10B51C680D4B01681B6861
:104E00001A1C673211704168D170191C6931002277
:104E10000A70617A8A4204DA816801320131816064
:104E2000F7E70268683301201A7010BD940E002065
:104E30004C010020A14BF0B51B68B3B01A1C08321E
:104E4000D26F002406929E4A13211568201CEA7A2C
:104E5000069F133AD2B2914260411A1CC6B2733215
:104E6000177076330296012202261A70361A211C18
:104E7000882210A804F06AFB211C14220BA804F05D
:104E800065FB291C603110A8442204F01DFB022E92
:104E900004D121A810A9442204F016FB6E79002742
:104EA000059603973C1C059FBC422ADA2B19DE7A33
:104EB0000298311CFFF708FB0BAB195C10AA8C465B
:104EC0006746442179430918511801340C711F5C5D
:104ED0007111049111214F4304997F18B91D1F27A7
:104EE0003E4001278900B7403E1C8F583E438E50FC
:104EF00062460132039ED2B21A549642D3DA03922A
:104F0000D1E7069D00240595039F0297029F002F7D
:104F100016D0029E4422013E724310AFBA18029688
:104F2000D66A0021556A11629162B10E8906D37862
:104F3000A80ED162202180060B435062D370E5E7B2
:104F40005F4B221C1868817984460791079D131BCB
:104F5000AB4248DA65462B1B9B182F331878012388
:104F60001F1C874051100497071C1940203FE6B2D0
:104F70000991BB40039908961F1C002931D00139C3
:104F800044234B4310AE651C9D55089DF318099EA4
:104F90006DB20195B54210D01F2804DC1E6A049D35
:104FA00035431D62E9E75D6A2E1C3E43B601AD0E36
:104FB000B609AD0635435D62DFE71F2804DC9E6A53
:104FC000049D35439D62D8E71D1CDB6A3B439B0172
:104FD0009B090193EB6A9E0E019BB6063343EB627D
:104FE000CBE70132B2E7374B1B685B19C8335F79F7
:104FF000634661331D78AD06AD0EFEF743F9002818
:1050000013D0314E882031780137C9B204F0DCF971
:1050100031784743C9B2882004F0D6F902354543B8
:10502000013F023D0026781C03D03E1E1F2E00DDEE
:105030001F263F2D01DD3F2502E0EB43DB171D401E
:10504000059944274F43214ABF18029A039B9A426D
:1050500020DA02994422514310AB5918301C1F2307
:105060001840049088789843031C049803438B707D
:10507000281C3F231840049048789843031C049848
:1050800003434B70381C04F01FFA02994437013176
:105090000291DAE7DB43039D059EDB172B40F618F0
:1050A00001340596022C00D02EE7044A069D1268B2
:1050B000E918CB187432137033B0F0BD4C010020E6
:1050C000940E0020900E002054000200008000503A
:1050D000F8B5164D061C2B68002463331F782B6827
:1050E000E1191A1C643212780134914209DAE31989
:1050F000442058430E4B311CC018142204F026FAE9
:10510000EDE76B331F7800242B68E2196C331B78B2
:1051100001349A4209DAE31944205843044B311C04
:10512000C018142204F012FAEEE7F8BD4C0100207A
:10513000EC7F0050F0B5374B85B01B6802901A1C0D
:10514000039163321578344A00201168041C8A7A6E
:1051500094422BDA021C4F7A161ABE421FDA9E19AD
:105160005836B679B7090096EF1944267E432B4F7F
:10517000B4463E1C009F66440196BE06039FB60ED1
:10518000B446BE5C3F2E00DD3F26F6B20096019E7F
:105190000132371C6744009E30373E70DBE7181C35
:1051A0006530007801342D18101CD0E71A1C6B32C2
:1051B000147800208A79904229DA00224D790195ED
:1051C000AA421EDA9E187678B709E7190397442792
:1051D0003D1C039FB6067D43AC46104DB60E2F1CFA
:1051E000019D674445430397029FBF187D5D3F2D96
:1051F00000DD3F25039FEDB2BE1930363570013218
:10520000DCE71A1C6D3212780130A418D2E705B021
:10521000F0BDC0464C010020940E002000800050DC
:1052200044235843044B111CC018C2780F23194063
:105230009A430A43C27070470080005038B5051C7D
:10524000141CFEF71FF8002808D00A4B8820197894
:105250000234C9B204F0B8F84443023C4420684325
:10526000054A3F23801802781C409A431443047077
:1052700038BDC046540002000180005010B5041C27
:10528000FEF700F8002808D0084B8820197804346D
:10529000C9B204F099F84443043CA023DB05198A01
:1052A0001F22144091430C431C8210BD5400020085
:1052B00030B50F4B1B689979884203DA1B182833E5
:1052C000D87914E05A798D18411AA84202DA5B188D
:1052D000D87A0CE09C7A8A1A2D19A84203DA9B1816
:1052E0005833187803E0141B1B195033D87830BD9D
:1052F000940E0020F0B5D44DA024E405A3682B68DB
:1053000097B059799A7900AF8A18597A9B7A5218CE
:10531000D3181A1C5A437B62D31DDB08DB00684696
:10532000C01A85466B46FF217B6104F00FF9FF2010
:10533000FFF7AAF8C54B69461B1A786ABB60C00024
:10534000031C0E33DB08DB003861C91A786A8D460E
:105350006B4680003B62031C0A33DB08DB00C91A82
:10536000002200233A637B63F860F961E268B84B7E
:105370008D461340E3602B685C79B34B013C1B689E
:10538000621C14D01B19381CD97A5030202204F02A
:105390007DF83D6D58207A6DAB00C019C31801210E
:1053A000283B91400A1C19680A431A60E5E79C797A
:1053B000A54B013C1B68621C15D01B192833381CF7
:1053C000D9795030202204F061F83D6D58207A6D73
:1053D000AB00C019C3180121283B91400A1C196871
:1053E0000A431A60E4E75C7A974B013C1B68621C35
:1053F00015D01B195033381CD9785030202204F0B6
:1054000045F83D6D58207A6DAB00C019C3180121D5
:10541000283B91400A1C19680A431A60E4E79C7A09
:10542000013C621C17D0884B381C1B6850301B197C
:1054300058331978202204F029F83D6D58207A6DF0
:10544000AB00C019C3180121283B91400A1C196800
:105450000A431A60E4E77D69BD610025FD62FD6ACB
:10546000786A854200DBDEE000213A69386A04F0A0
:105470006DF8A0240021FA68F86904F067F8E405E3
:1054800000232363636B9B0E9B0663633D6BA563E5
:10549000786BB862E36B86019B0EB6099B063343BB
:1054A000E3636420FEF7F0FFFDF77AFFF86AFFF789
:1054B000FFFEC1B2381C4830202203F0E7FF396BF1
:1054C0007A6BFB6CB963FA63BA6C0121994058207E
:1054D0000B1CC01991004118081C203802689A431F
:1054E0000260B86C131C00280AD028390A6853409F
:1054F0009A01636B92099B0E9B061343636301E061
:105500006B402363A024E405A563E36B0A209B0E94
:105510009B061E43E663FEF7B7FFFDF741FFE26B14
:105520008023DB041343E363B96BBA6A4D40A56380
:10553000FB6B5A40E36B92019B0E92099B0613434F
:10554000E363FEF779FDFD6BBE6B3B6AAC4601245D
:10555000404ABD689168A94214DB3F4A654610681D
:10556000526830402A405D68954203D3F0D11D68EF
:105570008542EDD2FD69DA60A2009860A95001343D
:105580000833E5E7FEF78AFDA023DB05D96B334A34
:105590000A40DA63012C3ED0651E386AED004519D9
:1055A000013C002C37D02B1C083B1A6829685B682B
:1055B00091436A687E6A9A43A30039647A64013E23
:1055C000BB62FA6A964224D0301CFFF771FE011CC0
:1055D000381C5030202203F059FF7B6D0122386DBA
:1055E0009A405821131CC91982008A18183A126867
:1055F0001A420CD0BB6AFA691720D2584042504375
:10560000174BC018FEF726FDB96900118855013EF9
:10561000D7E7083DC4E7FD6A786A0135FD62BD69D8
:105620002D18BD611BE7C3B2381C503003704370A6
:1056300083700023C370037179690123437100F003
:10564000D7F8BD4617B0F0BD940E0020FFFFFF0055
:10565000FFFF0FFF10E000E040000050FFFFFFFBE6
:10566000E9FFFF16014B18607047C046A00E0020EE
:10567000014B18687047C046A00E0020014B18600F
:105680007047C0469C0E0020014B18687047C0460A
:105690009C0E0020014B18687047C0465001002046
:1056A000F7B52F4F73467146381C0193FEF798FEED
:1056B000FBF7A8FB009001F09FF9061CFDF7BEFD6B
:1056C000284D1022041C0099286803F0FDFE328842
:1056D0002B68381C1A74120A5A74B2889A74120A07
:1056E000DA74214A12680532D27F002A03D0A279E7
:1056F0001A75627902E062791A75A2795A75E279AF
:105700009A751A4A6B6812881A70120A5A70184AE7
:1057100052889A70120ADA70164A52881A71120A5E
:105720005A71154AD2889A71120ADA71134AAB6813
:10573000920A1A70124A920AD2B25A709A70114A98
:10574000920AD2B2DA701A710F4A920AD2B25A7120
:105750009A710E4A920ADA710199FEF759FEF7BD65
:1057600041560000540100201C030020FE030000ED
:10577000FC9B0000FCAF0000F8BF00000000000030
:1057800000040000009C000000B0000000C0000009
:10579000F7B50A4C7146061C201C7546FEF720FE24
:1057A000074A694681CA81C16B46B600F658201C7B
:1057B000291CFEF72DFE301CFEBDC04631570000EF
:1057C0009895000070B5084C7146201C7646FEF78F
:1057D00007FE064B201CDB69311C5D78EDB2FEF73D
:1057E00017FE281C70BDC0466557000054010020FC
:1057F000F8B5144D041C0F1C281C71467646FEF7A4
:10580000EFFD114BFF215A6A117010499C620F6025
:10581000A0782778596B474320793F186079400674
:10582000400E784308609869A0210170D969281C4E
:105830001378FF2B02D10B78022BF9D0311CFEF725
:10584000E7FDF8BD915700005401002060040020DE
:1058500038B50D4C7146201C7546FEF7C1FD0B4A4C
:10586000D1694B780A49DBB20B72012B05D0022BB0
:1058700005D1936901225A7001E0FDF75BFE291CF6
:10588000201CFEF7C5FD38BDF15700005401002073
:105890006004002038B50D4C7146201C7546FEF79B
:1058A0009FFD0B4BDB68002B0BD00A4ADBB2106C60
:1058B0007F21194048320170937001335370FFF714
:1058C000C7FF291C201CFEF7A3FD38BD355800007A
:1058D000600400205401002070B50F4C7146201C5C
:1058E0007546FEF77DFD0D4B261C1B7A0C4C012BDB
:1058F00005D0022B05D1A2690023537001E0FDF70A
:105900002BFE236C7F211A78301C8A431A70291CC5
:10591000FEF77EFD70BDC04679580000600400208F
:1059200054010020F7B51E4E7346301C714601939A
:10593000FEF756FD1B4D00241B4E337A012B07D07A
:10594000002B18D0022B17D1184B9B695C7813E001
:10595000FDF712FE041C002D0BD1FDF7FDFD2E23DB
:10596000FF33013B002B01D0C046FAE7FDF7E2FD13
:105970000C4D013D00E01C1C0C4FFA695378327A43
:105980009A4206D0FFF7A8FFFB69074A5B781372BB
:1059900001E0002CD0D102480199FEF739FDF7BD96
:1059A000C5580000FF2C01006004002054010020B5
:1059B000F7B5164D7346071C0E1C281C7146019343
:1059C000FEF70EFDFFF7AEFF114C8022236C524212
:1059D0001978606C0A431A70391C321C03F074FD8C
:1059E000236CF6B218787F229043311C1140021CC0
:1059F0000A431A704834A670FFF72AFFFFF792FF98
:105A0000281C0199FEF704FDF7BDC046515900005E
:105A100054010020F8B5FBF7F5F900F0EDFFFDF7B4
:105A20000DFC1A4C051C666B03F0B0FB7060FFF7B1
:105A300037FE174B1B681888E36B020A5A711871FE
:105A4000FFF7A6FEE26BC6B296712B68EF790136BE
:105A5000FF1801374743381C00F0EFF93A1C0021CA
:105A6000051C206403F072FD231C4833013500221D
:105A70005E7065649A7003F083FB064B5860A02348
:105A8000DB059A7CE36C1A70F8BDC0465401002017
:105A9000A00E002060040020024BDB691878C0B221
:105AA0007047C04654010020024BDB699878C0B2B1
:105AB0007047C04654010020014BDB699870704765
:105AC00054010020024BDB69D878C0B27047C04651
:105AD00054010020014BDB69D8707047540100204D
